:020000040800F2
:100000004860002061020008416100087D4300084B
:100010007D5F0008E10A0008816F00080000000011
:10002000000000000000000000000000A101000826
:10003000C50B000800000000FD010008D96600089B
:100040007B0200087B0200087B0200087B0200089C
:100050007B0200087B0200087B0200087B0200088C
:100060007B0200087B0200087B0200087B0200087C
:100070007B0200087B0200087B0200087B0200086C
:10008000E50A0008F10A00087B0200087B0200086C
:100090007B0200087B0200087B0200087B0200084C
:1000A000996700087B0200087B020008B56700081A
:1000B000C1670008CD670008D967000881430008C0
:1000C0007B0200087B0200087B0200087B0200081C
:1000D0007B0200085D6F0008696F0008756F0008FB
:1000E0007B0200087B0200087B0200087B020008FC
:1000F0007B020008096800087B020008FD0A00086E
:100100007B0200087B020008E56700087B0200080C
:100110007B0200087B020008F1670008FD67000809
:100120007B0200087B020008090B00087B02000824
:100130007B0200087B0200087B0200087B020008AB
:100140007B0200087B0200087B0200087B0200089B
:100150007B0200087B020008150B00087B020008E8
:100160007B0200087B0200087B0200087B0200087B
:100170007B0200087B0200087B02000800000000F0
:100180007B0200087B020008DFF810D000F038FC8A
:100190000048004785840008AFF3008048600020D5
:1001A0002C4B19680868B0E8F04F80F30988BFF35A
:1001B0006F8F4FF0000080F311887047000000003F
:1001C00008480068006880F308884FF0000080F35A
:1001D000148862B661B6BFF34F8FBFF36F8F00DF35
:1001E00000BF00BF08ED00E0DFF80C00016841F43B
:1001F00070010160704700BF88ED00E0EFF30980F7
:10020000BFF36F8F134B1A681EF0100F08BF20ED5D
:10021000108A20E9F04F106009B44FF0500080F3CD
:100220001188BFF34F8FBFF36F8F09F0C3FA4FF000
:10023000000080F3118809BC19680868B0E8F04F25
:100240001EF0100F08BFB0EC108A80F30988BFF3CE
:100250006F8F704788000020EFF305807047000023
:100260000648804706480047FEE7FEE7FEE7FEE750
:10027000FEE7FEE7FEE7FEE7FEE7FEE78967000828
:10028000890100082DE9F05F0546002092469B4653
:1002900088460646814640241BE02846414647469C
:1002A000224600F076FA53465A46C01A914110D3BE
:1002B00011461846224600F05DFA2D1A67EB010838
:1002C0004F4622460120002100F054FA17EB0009A6
:1002D0004E41201EA4F10104DFDC484631462A4687
:1002E0004346BDE8F09F40EA01039B0703D009E0C5
:1002F00008C9121F08C0042AFAD203E011F8013B12
:1003000000F8013B521EF9D27047D2B201E000F86A
:10031000012B491EFBD270470022F6E710B51346A9
:100320000A4604461946FFF7F0FF204610BD2DE9A6
:10033000FE4F804681EA0300C00F0C46009021F07A
:10034000004123F00045B8EB0200A94105D2404628
:10035000214690461C460B46024623F000401043BF
:1003600047D0270DC7F30A00C3F30A510290401A81
:10037000019040286BDAC3F3130040F4801B00980F
:10038000924620B10023D2EB030A63EB0B0B0198DA
:100390005946C0F14002504600F0ECF906460D46C1
:1003A00050465946019A00F004FA10EB08006141EA
:1003B000002487EA115284EAE7731A4340D0009A76
:1003C00062B3019A012A4FEA075215DC001B61EB68
:1003D00002014FF0004202EA0752CDE90042001C40
:1003E00041F5801132462B4600F03BFA03B0BDE8E0
:1003F000F08F40462146F9E7001B61EB0201001C2B
:1004000041F5801300185B412018A2F5001747EB57
:10041000030140EAD570B6196D4111E06D084FEA4D
:10042000360645EAC0754FEA0752001B61EB020130
:10043000001C41F5801149084FEA30000019514174
:1004400032462B4603B0BDE8F04F00F0FBB90098F0
:10045000012240000023D0EB020263EBE07300981E
:1004600021464FEAE074B8EB000061EB0401E9E7D4
:1004700083F000435BE781F0004158E72DE9FE4F30
:1004800081EA030404F0004421F0004100944FF09D
:10049000000B23F0004350EA01045ED052EA03044B
:1004A0005BD0C3F30A54C1F30A552C44A4F2F334CD
:1004B0000194A0FB0254C1F3130141F48011C3F372
:1004C000130343F4801301FB024400FB034E840A30
:1004D000970A44EA815447EA8357A4FB07680295C8
:1004E0008D0A05FB07854FEA932C04FB0C54270566
:1004F000029D4FEA065847EA1637B5EB08056EEB42
:10050000070C870E920E47EA811742EA8312A7FB77
:100510000201B6EB0B0164EB00042B0D43EA0C3334
:100520005E1844EB1C50DA465146E7FB0201C5F366
:1005300013044FEA0B3343EA14534FEA0432019C8D
:1005400043EA0603A4F10C040294009CCDE900B434
:1005500000F087F903B0BDE8F08F00200146F9E70D
:100560002DE9F04D81EA030404F0004B21F0004531
:1005700014464FF0000A23F0004150EA050220D053
:1005800054EA01021DD0C5F30A570246C5F313030E
:10059000C1F31300C1F30A5640F4801543F48013ED
:1005A000A7EB0608101BD64608F2FD3873EB0500D2
:1005B00002D308F1010801E092185B41B8F1000F85
:1005C00003DA00200146BDE8F08D00204FF48011D1
:1005D000064684460EE0171B73EB050705D3121B76
:1005E00063EB050306434CEA010C49084FEA30006F
:1005F00092185B4150EA0107EDD152EA030012D094
:1006000082EA040083EA0501084305D0101BAB41D0
:1006100006D20122002306E000224FF0004302E050
:100620006FF0010253101AEB06004CEB085110EB6F
:100630000A0041EB0B01BDE8F04D00F003B90EB527
:10064000C10F80EAE0700844CA07002140F233433A
:100650008DE80E000A460B4600F003F903B000BD1A
:100660000EB540F2334102910021CDE900110A4656
:100670000B4600F0F6F803B000BD70B5C1F30A52A6
:1006800001F000450024C1F3130140F2FF3341F4AF
:1006900080119A4201DA002070BD40F233439A4241
:1006A000A2F2334203DC524200F073F800E09040C3
:1006B0002C43F1D0404270BD00F0004230F00040C9
:1006C0000AD0C10D01F56071C0F3160042EA015174
:1006D000C2084007114370470020014670470000E0
:1006E00030B5041E71F1000404DB4FF000444042B9
:1006F00064EB0101141E73F1000405DB1C464FF08E
:100700000043524263EB04038B4208BF824230BD78
:1007100001F0004330B421F0004150EA010206D05C
:100720000A0DA2F56072C1F31301002A02DC30BC8D
:1007300000207047440F44EAC104C100E01830BCF7
:1007400000EBC25000F047B830B50B460146002020
:100750002022012409E021FA02F59D4205D303FA83
:1007600002F5491B04FA02F52844151EA2F1010204
:10077000F1DC30BD202A04DB203A00FA02F100202F
:1007800070479140C2F1200320FA03F319439040CF
:100790007047202A04DB203A21FA02F0002170473A
:1007A00021FA02F3D040C2F12002914008431946D9
:1007B0007047202A06DBCB17203A41FA02F043EAC1
:1007C000E07306E041FA02F3D040C2F1200291400A
:1007D0000843194670470029A8BF7047401C4900CC
:1007E00008BF20F00100704710B4B0FA80FC00FA96
:1007F0000CF050EA010404BF10BC704749B1CCF1C1
:10080000200421FA04F411FA0CF118BF012121434C
:100810000843A3EB0C01CB1D4FEA00614FEA102007
:1008200042BF002010BC704700EBC35010440029A9
:10083000A4BF10BC7047401C490008BF20F0010055
:1008400010BC704710B5141E73F1000408DA401C88
:1008500041F1000192185B411A4301D120F00100DF
:1008600010BD2DE9F04D92469B4611B1B1FA81F2CF
:1008700002E0B0FA80F220329046FFF77BFF044698
:100880000F4640EA0A0041EA0B0153465A46084324
:1008900013D0114653EA010019D0C8F14002504666
:1008A000FFF777FF05460E46504659464246FFF78A
:1008B00061FF084305D0012004E020463946BDE829
:1008C000F08D0020054346EAE0762C4337430A9832
:1008D0006305E40AA0EB08000022FD0A44EA47543D
:1008E0000A3002D500200146E9E7010510196941E7
:1008F000DDE9084500196941BDE8F04DA2E72DE9A1
:10090000F04D00231A461B1A8A4103DB00200146E2
:10091000BDE8F08DC1F30A52C1F3130141F4801513
:100920004FF0000BD10702D100186D41521E002775
:10093000044640F2FF11384601EB620A3E4680460B
:10094000024600204FF48011FFF723FFC2197141C6
:10095000BB1846EB0100B4EB030C75EB000C04D3A1
:10096000E41A65EB000517460E46241908F101004C
:100970006D4180463428E3DDF91946EB0600091B7A
:10098000A84103D24FF0FF32134601E00022134684
:100990001BEB070046EB0A51BDE8F04DFFF752BFD5
:1009A000C1F30A52C1F3130140F2FF3341F4801145
:1009B0009A4202DA00200146704740F233439A42DD
:1009C000A2F2334202DC5242FFF7E3BEFFF7D2BE8F
:1009D00030B5041E71F1000404DB4FF000444042C6
:1009E00064EB0101141E73F1000405DB1C464FF09B
:1009F0000043524263EB0403994208BF904230BD6A
:100A0000064C074D06E0E06840F0010394E807005B
:100A100098471034AC42F6D3FFF7BAFB94A800080D
:100A2000B4A8000870B58C1810F8015B15F0070326
:100A300001D110F8013B2A1106D110F8012B03E077
:100A400010F8016B01F8016B5B1EF9D12B0705D47F
:100A50000023521E0DD401F8013BFAE710F8013BC8
:100A6000CB1A921C03E013F8015B01F8015B521EE4
:100A7000F9D5A142D8D3002070BD000080ED010A55
:100A8000D0ED000A144A30EEC00A10EE101A80EDC4
:100A9000020A914203DB9FED110A80ED020A90EDFC
:100AA000040AD0ED020A30EE201A80ED041A90ED0F
:100AB000050AD0ED061A20EE200A01EE810A90ED1B
:100AC000031AD0ED071A30EEC11A01EE810A80ED4B
:100AD000010AC0ED030A70470000344300003443AC
:100AE000FEE70000014800F041BB0000BC08002008
:100AF000014800F03BBB00001C090020014800F049
:100B000035BB0000F0020020014800F02FBB0000C0
:100B1000FC070020014800F029BB00005C08002011
:100B200001681823CAB2103AB2FBF3F2054B6FF317
:100B30000901032A9B5CC36500D9091D816508462C
:100B400070470000FCA2000810B5014600208B6928
:100B50008A6A4FF0C07453B1B3F5005F15D072B11B
:100B6000012A0CD0022A0AD0032A09D104E01AB1C2
:100B7000012A06D0022A03D1C96AC90100D5012081
:100B800010BDC96AA142FAD010BD002AF7D0012ACF
:100B9000F2D0022AF3D0032AF3D010BD30B5046896
:100BA000256825F480252560046863608368402BF0
:100BB000036803D099600068C26030BD9A60006825
:100BC000C16030BD704700B502464FF47A7302E051
:100BD000184600F003F8521EFAD200BD00EBC00028
:100BE000C1004FF0E02041610021816105210161D8
:100BF0000169C903FCD504210161704772B6FEE7A3
:100C0000F0B50F462DED068BF0EE409AB6EE000AD9
:100C100089B029EE809A0546FE4CB0EE008AF7EEC8
:100C2000008A94ED010AD4ED030A94ED021AFA4900
:100C300020EE200AD4ED000A00EEC10A20EE080AD8
:100C40008DED000A94ED000AD4ED010A94ED031A2B
:100C500020EE200AD4ED020A00EE810A20EE080AF6
:100C60008DED010A94ED010AD4ED010A94ED021A0A
:100C700020EE200AD4ED020A00EE810AF0EE680AA6
:100C800040EE480ACDED020AB1F9000000EE100A6C
:100C9000B1F90200B8EEC00A60EE000A00EE100AD8
:100CA000B8EEC01A00EE100AB1F90400B8EEC00A9E
:100CB00041EE000A00EE100AB8EEC01A00EE100A6B
:100CC000B8EEC00A41EE000A10EE900AFFF7F4FCFD
:100CD00041EC100B06F0ACFD53EC102B9FEDCFABAD
:100CE00051EC1A0BFFF73CFCFFF712FD00EE900AE7
:100CF000A4F11806C6ED020AB5F9000000EE100ACC
:100D0000B8EEC00A20EE200A8DED030AB5F9020004
:100D100000EE100AB8EEC00A20EE200A8DED040A9B
:100D2000B5F9040000EE100ABE48B8EEC00A20EE85
:100D3000200A8DED050A9DED040ADDED020A9DED08
:100D4000011A20EE200ADDED050A00EEC10A8DED44
:100D5000060A9DED050ADDED000A9DED021A20EE62
:100D6000200ADDED030A00EEC10A8DED070A9DEDB4
:100D7000030ADDED010A9DED001A20EE200ADDEDEB
:100D8000040A00EEC10A8DED080AD0ED000A9DEDBF
:100D9000061A96ED010A41EE000AC0ED000AD0EDF8
:100DA000010A9DED071A41EE000AC0ED010AD0EDDF
:100DB000020A9DED081A41EE000AC0ED020AB5F9DB
:100DC000061000EE101AF8EEC00A9FED970ADDED4E
:100DD000061A20EE801AD6ED000A00EEA11AD0ED18
:100DE000001A31EE211A8DED001AB5F90810DDED6B
:100DF000071A01EE101AB8EEC11A21EE001A00EE21
:100E0000A11AD0ED011A31EE211A8DED011AB5F9B2
:100E10000A1001EE101AB8EEC11A21EE000A9DED7B
:100E2000081A00EE810AD0ED020A30EE200A8DED9C
:100E3000020A94ED010ADDED000A9DED011A9DED17
:100E4000012A20EEC00AD4ED020ADDED002A00EEF0
:100E5000C10AD4ED030A9DED021A00EEC10ADDEDD0
:100E6000000A9DED011A60EE091A94ED000A20EEC9
:100E7000200AD4ED030A00EEC10AD4ED020A9DED6A
:100E8000021A00EE810AD4ED030A9DED001A60EE0D
:100E9000810A94ED001A20EE090A41EE020A94ED4F
:100EA000011A9DED022A41EE420A9DED012A20EE33
:100EB000891AD4ED010A60EE820A94ED022A42EE0C
:100EC000620A94ED002ADDED022A42EE220A94ED38
:100ED000002A72EE211A60EE890AC4ED001AD4EDE0
:100EE000011A31EE800A84ED010A94ED020A30EE17
:100EF000010A84ED020A94ED030A30EE200A84ED23
:100F0000030A94ED000AD4ED000A94ED011A60EE94
:100F1000200A94ED010A40EE010A94ED020A94EDD4
:100F2000021A40EE010A94ED030A94ED031A40EE12
:100F3000010A10EE900AFFF7BFFB41EC100B06F020
:100F400077FC53EC102B51EC1A0BFFF709FBFFF762
:100F5000DFFB00EE900A94ED000A20EE200A84EDFB
:100F6000000A94ED010A20EE200A84ED010A94EDB6
:100F7000020A20EE200A84ED020A94ED030A20EE14
:100F8000200ADFED2A0A84ED030AB5F90A0000EE13
:100F9000100AB8EEC00A60EE200A10EE900AB0F116
:100FA0007E5F04DC10EE900A10F1814F07D997EDB7
:100FB000020A00EEA90A87ED020A86ED030A94ED03
:100FC000000AD4ED020A94ED031A20EE080A20EE7E
:100FD000200AD4ED010A60EE880A00EEC10A10EE84
:100FE000100AFFF769FB41EC100B06F005F89FEDC6
:100FF00010AB51EC100B53EC1A2BFFF73FFAFFF735
:1010000087FB7860306194ED010AD4ED010A20EE8F
:10101000080A11E0700100202C5C00200000000094
:101020000000F03F085C00202E9E8B3AF6FF793DD1
:1010300000000020DCA54C4040EE608A94ED020ADE
:10104000D4ED020A20EE080A40EE608A18EE900AFB
:10105000FFF732FB94ED020AD4ED030A94ED011A76
:1010600020EE080A41EC190B20EE200AD4ED000A0C
:1010700060EE880A00EE810A10EE100AFFF71CFBF2
:1010800041EC100BB0EE491AF0EE691A06F0D0FAF6
:1010900053EC1A2B51EC100BFFF7F0F9FFF738FB6C
:1010A0003860706109B0BDEC068BF0BD2DE9F041F0
:1010B0000446876D00F0E8FA064694F835000025EE
:1010C000022806D08020606584F834500120BDE8F5
:1010D000F0812068016821F01601016020684169F3
:1010E00021F080014161206C08B9A06C20B120681A
:1010F000016821F0080101602068016821F0010108
:1011000001600CE000F0C0FA801B052807D9202000
:101110006065032084F8350084F83450D7E72068F0
:101120000068C007EED194F85C103F208840B8609A
:10113000012084F8350084F834500020C7E790F887
:101140003510022903D08021416501207047052117
:1011500080F835100068016821F00101016000206D
:101160007047406D704790F8350070472DE9F8439F
:1011700004464FF00009CDF8009063484FF4165133
:10118000A56D0068B0FBF1F72E6894F85C1008209C
:1011900000FA01F131420FD021680A6852070BD5DD
:1011A0000A6822F004020A6094F85C108840A86083
:1011B000606D40F00100606594F85C104FF001082C
:1011C00008FA01F0304208D021684969090604D5BF
:1011D000A860606D40F00200606594F85C10042027
:1011E0008840304208D021680968890704D5A86082
:1011F000606D40F00400606594F85C101020884039
:10120000304218D021680968090714D5A860206801
:101210000168490304D50068000308D5A16C07E004
:101220000168C90503D4016821F008010160216C3F
:1012300009B12046884794F85C102020884030424D
:1012400031D021680968C9062DD5A86094F8350009
:1012500005282068016806D0490347D500680003C7
:101260001DD4616C1CE021F0160101602068416909
:1012700021F080014161206C08B9A06C20B1206888
:10128000016821F00801016094F85C103F2088405B
:10129000A86084F8358084F83490216D1FE0E16BFC
:1012A00009B120468847606D00282BD0606DC007CB
:1012B00014D0052084F835002068016821F0010170
:1012C00001600098401C0090B84203D82068006874
:1012D000C007F6D184F8358084F83490E16C002999
:1012E00010D001B02046BDE8F04308470168C905A9
:1012F000D5D4016821F01001016084F8358084F8AC
:101300003490CCE7BDE8F883840000202DE9F0415B
:10131000044600F0B9F906465CB1022084F83500B5
:10132000002584F834502068016821F00101016033
:101330000DE00120BDE8F08100F0A6F9801B052832
:1013400005D920206065032084F83500F2E7206885
:101350000068C007F0D12268116820480140D4E934
:1013600001031843D4E90336334318436369184330
:10137000A3691843E3691843236A18430843616A61
:10138000042903D1D4E90B131943084310602068E2
:101390004069666A20F0070130460E4301270428A1
:1013A0000CD1A06A0643E06A40B12046FFF7CCFBAF
:1013B00020B14020606584F83570BAE72068466146
:1013C0002046FFF7ADFB94F85C203F2191408160FF
:1013D000656584F835700020ACE700003F8010F0B0
:1013E0002DE9F0410446866D90F83400002501286F
:1013F0000DD0012084F8340094F835700020012FBE
:1014000007D084F8340002252846BDE8F081022088
:10141000FBE7022784F8357060652046FFF7BEFBC6
:1014200094F85C103F208840B0602068016841F06B
:1014300016010160206C20B12068016841F00801AC
:1014400001602068016841F001010160DCE70000F3
:1014500070B5044600F018F90546601C02D0044837
:101460000078044400F010F9401BA042FAD370BD8C
:10147000780000202DE9F84FDFF8BCA100220125FB
:1014800003264FF00F090AF1040BAAF1040E00BF66
:101490000B6805FA02F42340A34270D10F7907F0DC
:1014A0000307012F01D0022F16D187684FEA4208A7
:1014B00006FA08FC27EA0C07D1F80CC00CFA08FC65
:1014C0004CEA070CC0F808C04768A7430C79C4F37E
:1014D000001494403C4344600C79E443A4070AD0D0
:1014E000C4684FEA420C06FA0CF7BC438F6807FA4F
:1014F0000CF72743C7600C7904F00304022C12D1C7
:10150000D40800EB840CDCF820405707FF0E09FAE2
:1015100007F824EA0804D1F8108008FA07F848EA26
:101520000408CCF8208004684FEA420C06FA0CF755
:10153000BC430F7907F0030707FA0CF7274307604E
:101540004C6814F4403F70D03C4C276847F4804707
:101550002760246822F0030704F480440094384C88
:1015600007EB040CDCF8084897074FEA177809FAEC
:1015700008F7BC43334FB84202D1002724E054E0BF
:10158000314FB84201D101271EE0304FB84201D19E
:10159000022719E02E4FB84201D1032714E02D4F46
:1015A000B84201D104270FE02B4FB84201D10527E3
:1015B0000AE02A4FB84201D1062705E0284FB84279
:1015C00001D1072700E0082707FA08F72743CCF8DE
:1015D0000878DAF800405746D1F804C09C435FEA27
:1015E000CC2C00D51C433C60DBF800405F46D1F8B2
:1015F00004C09C435FEA8C2C00D51C433C60DEF8A1
:1016000000407746D1F804C09C435FEA8C3C00D58B
:101610001C433C60084F083F3C68D1F804C09C4321
:101620005FEACC3C00D51C433C60521C102AFFF4FE
:101630002FAFBDE8F88F0000083C0140443802405D
:101640000030014000000240000402400008024057
:10165000000C02400010024000140240001802403A
:10166000001C02400069084000D001207047426918
:1016700021EA02030A4043EA0241816170470AB14C
:10168000816170470904FBE70148806870470000EA
:1016900078000020704770472DE9F047026800216C
:1016A0005368C66A90F83E4090F83D50102C12D016
:1016B000402C10D0046C002C7DD05469E443A60764
:1016C0007AD4DE43B60577D4036C03B19169BDE8E3
:1016D000F04703F091BB976951694FF42A0CC94355
:1016E0005FEAC1784FF02A4904D066452AD04E45BA
:1016F00028D010E0DE43B6050DD4C16A614501D1A2
:10170000012103E0C16A494501D10821C162BDE858
:10171000F04703F009BA0E0716D4DE43B60513D41A
:10172000416CC9B21161416B09B1C96B29B9816BB7
:10173000002907D0C96B002904D00068416841F432
:1017400000614160BDE8F0878E0706D4DE43B60530
:1017500003D4BDE8F04703F05BB9FE435268760757
:101760004FEA02521DD4002AECDB0A0608D4DA4301
:10177000520505D4490705D5BDE8F04703F0ECB89C
:101780004907DFD4D9438905DCD4212D05D0402C6D
:10179000D8D1BDE8F04703F00DBABDE8F04703F03B
:1017A00099B8002ACEDB4A060BD4DA43520508D496
:1017B000490708D501E00DE00EE0BDE8F04703F071
:1017C00015B84907BED4D9438905BBD4BDE8F04755
:1017D00002F0A3BF916970E7E10606D4D9438905F9
:1017E00003D4BDE8F04703F02BBB2821212D27D0DF
:1017F000292D25D0650655D4DD436D0552D46407E7
:1018000052D590F83D30448D002C9BD01269446A2B
:101810002270426A521C4262428D521E4285428DA3
:10182000002A8FD12A2B8DD10268536823F480635C
:1018300053602222026380F83D1000F0CFFC81E764
:10184000250623D4DD436D0520D4640720D590F808
:101850003D30448D002CF2D0446A24781461426AF1
:10186000521C4262428D521E4285428D002AE6D1B0
:10187000292BE4D10268536823F48063536021224A
:10188000026380F83D1000F0AAFC5BE76107D6D444
:10189000D9438905D3D4418D0029D0D0416A097834
:1018A00011610AE06107CAD4D9438905C7D4418DC3
:1018B0000029C4D01169426A1170416A491C416211
:1018C000418D491E41853DE77047000070B5040019
:1018D00025D094F83D00002520B984F83C502046DE
:1018E00000F004FC242084F83D002068016821F009
:1018F000010101602068016841F400410160206835
:10190000016821F40041016000F0EEFD4D4A61687C
:10191000914201D84C4900E04C49884201D2012053
:1019200070BD4B492368B0FBF1F15E6826F03F06BD
:101930000E435E606368934206D94FF49673594331
:101940004FF47A73B1FBF3F12368491C1E6A26F049
:101950003F06314319626168914210D84900401E28
:10196000B0FBF1F2521CC2F30B02042A01D2042094
:1019700022E0B0FBF1F0401CC0F30B001CE0A268B9
:10198000F2B301EBC10303EB0116431EB3FBF6F305
:101990005B1C43F480431B0549D092B301EBC102A9
:1019A00002EB0111401EB0FBF1F0401CC0F30B0034
:1019B00040F4804040F400402168CA694CF6FF734F
:1019C0009A431043C861D4E90710014320680268B4
:1019D00022F0C00211430160D4E9030101432068F1
:1019E000826848F2FF339A4311438160D4E90501CC
:1019F00008432168CA6822F0FF021043C86001E072
:101A00000EE016E02068016841F0010101602564E4
:101A1000202084F83D00256384F83E50002070BDEE
:101A200001EB4106431EB3FBF6F35B1CB3E7012059
:101A3000C2E701EB4101401EB0FBF1F0401CC0F3D6
:101A40000B00B7E7A086010080841E0000093D005E
:101A500040420F00704770471CB509484178002983
:101A60000CD0084A0078802102EBC010CDE90001BB
:101A7000012340227821044800F06AFA1CBD0000CE
:101A8000240100203857002048020020F8B5002526
:101A90000446009590F83D00202871D14F4846F249
:101AA000A8160068B0FBF6F000EBC00606EB0010CD
:101AB000202600900098401E009010D02068806979
:101AC000C0438007F6D594F83C00012858D0012087
:101AD00084F83C0020680768FF070AD00DE044F84E
:101AE000305F6673A573206940F020002061257384
:101AF0003BE0076847F0010707602068076827F4A4
:101B000000670760212084F83D00102084F83E0023
:101B1000256462626385608D20853148E06261647E
:101B2000208D70B3606B10B32E49C163616B2E487A
:101B3000C864606B0564606B4564606B8564606B52
:101B400005652268238D1032616A606BFFF748FCDF
:101B5000C0B184F83D6084F83E5054F8400F40F026
:101B6000100000BF44F8040925700120F8BD84F876
:101B70003D6084F83E5054F8400F40F08000F1E79B
:101B80002AE016E084F83C502068416841F4407136
:101B900041602068416841F400614160206801684B
:101BA00041F4806101602068016841F48071016046
:101BB00010E02068016841F48061016020680168DC
:101BC00041F48071016084F83C502068416841F420
:101BD000E06141600020F8BD0220F8BD84000020D3
:101BE0000000FFFF894400084944000870470000D6
:101BF0000A48017807290DD04278002A0DD0491CE7
:101C0000C9B201700648042300EB8102782105481F
:101C1000FFF73CBF00214170017070472401002094
:101C200098520020480200202DE9FF4F83B09A46C9
:101C3000DDE9119793460446DDF84080FFF724FD67
:101C4000054694F83D00202870D1192301227149DE
:101C50002046009503F0C8F90028F5D194F83C001F
:101C6000012863D0012084F83C0020680168C9077E
:101C700003D1016841F0010101602068016821F48D
:101C800000610160222084F83D00402084F83E007D
:101C900000262664C4F82480A4F82A90608D20854C
:101CA0005D48E062CDE9007553465A4620460499E6
:101CB00002F0D0FF00287CD1208DD0B1012821D0A6
:101CC0000228206824D0416980690090208D032873
:101CD00069D801282BD0514902283B464FF0000219
:101CE000009559D08846204603F07EF9002860D13F
:101CF0003CE02068416981690091016841F400710C
:101D0000016077E02068016821F480610160F0E7FC
:101D1000016821F4806101602068016841F400617C
:101D20000160206841698069009063E06FE02A46A5
:101D30003946204603F0D7F998BB20680069616AEC
:101D400008704EE02068016841F40071016020686D
:101D50000069616A0870606A401C6062218D491EDA
:101D60002185618D491E6185216838E02068016800
:101D700021F48061016020680069616A0870606A0E
:101D8000401C6062208D401E2085608D401E608555
:101D90003B46002241460095204603F025F900B954
:101DA000D0E706E0FFE72A463946204603F09BF9D4
:101DB00018B1012007B0BDE8F08F20680069616AA2
:101DC0000870606A401C6062218D491E2185618D0A
:101DD000491E618521684A69D24352070AD40969BC
:101DE0000170606A401C6062208D401E2085608DFD
:101DF000401E6085208D00287FF468AF202084F885
:101E00003D0084F83E6084F83C600020D2E7022068
:101E1000D0E70000020010000000FFFF04000100F6
:101E20002DE9FF4F83B09A46DDE9119793460446AA
:101E3000DDF84080FFF728FC054694F83D00202897
:101E40007FD11923012240492046009503F0CCF8A8
:101E5000002876D194F83C00012872D0012084F843
:101E60003C0020680168C90703D1016841F0010105
:101E700001602068016821F400610160212084F87C
:101E80003D00402084F83E0000262664C4F82480EB
:101E9000A4F82A90608D20852C48E062CDE9007579
:101EA00053465A462046049902F052FF70B930E07A
:101EB0002A463946204603F049F958B1206C0428D7
:101EC00004D12068016841F400710160012007B06D
:101ED000BDE8F08F606A216800780861606A401C84
:101EE0006062218D491E89B22185628D521E6285F4
:101EF00022685369DB435B070BD469B1007810613A
:101F0000606A401C6062208D401E2085608D401EEE
:101F10006085208D0028CBD12A463946204603F023
:101F20003DF80028CAD154F83D0B016841F4007116
:101F30000160202004F81E09E67766770020C6E7D6
:101F4000FFE70220C3E70000020010000000FFFFCF
:101F50002DE9FC5F0025984691468A460446DDF847
:101F600030B00095FFF790FB074694F83D0020281D
:101F700072D15A4846F2A81120260068B0FBF1F051
:101F800000EBC00101EB001000900098401E009093
:101F900010D020688069C0438007F6D594F83C00D3
:101FA000012859D0012084F83C0020680168C90745
:101FB0000AD00DE044F8305F6673A573206940F0E5
:101FC00020002061257344E0016841F001010160B7
:101FD0002068016821F400610160212084F83D003F
:101FE000402084F83E002564C4F824B00D98608534
:101FF000608D20853A48E062C4F844A0C4F8489057
:10200000C4F84C802565208D00285CD0606B20B31F
:102010003449C163616B3448C864606B0564606BAC
:102020004564606B8564606B05652268238D1032A2
:10203000616A606BFFF7D4F9C0B184F83D6084F841
:102040003E5054F8400F40F0100000BF44F804091F
:1020500025700120BDE8FC9F3EE084F83D6084F8D7
:102060003E5054F8400F40F08000EFE72320CDE9C8
:10207000000743464A465146204602F069FE88B1B1
:10208000606BFFF75CF8606BC5632068016821F442
:1020900080610160258565852068016821F0010166
:1020A0000160D6E7206841698169009184F83C505D
:1020B000416841F4807141602068416841F40061E9
:1020C00041600020C6E784F83D6084F83E5054F833
:1020D000400F40F04000B9E70220BBE78400002039
:1020E0000000FFFF8944000849440008F0B587B0AC
:1020F000064614216846FEF70FF9324CDFF8C0C0DF
:10210000376800252F481222032104231034674525
:102110003AD1076847F002070760006800F0020044
:102120000590CDE90313C0208DE8250069462648B7
:10213000FFF7A0F9206840F4001020602068244CCC
:1021400000F400100590214820604FF0007060609E
:102150004020C4E902050001C4E90405A561E56168
:10216000256220466562FFF7D1F808B1FEF746FD0B
:102170007463002205211F20A66300F0C9F81F2008
:1021800000F0B8F807B0F0BD124EB742FAD10668B9
:1021900046F020060660006800F0200005908DE8FB
:1021A0002600CDE9031369460B48FFF763F9206861
:1021B00040F480002060206800F480000590E1E792
:1021C000005400403038024000040240B860024031
:1021D000F002002000580040001402407047704791
:1021E00002488168027811448160704778000020BD
:1021F0000B4810B5016841F400710160016841F4B9
:1022000080610160016841F480710160032000F089
:102210009FF80F2000F006F800F050F8002010BDE5
:10222000003C024030B505461F4887B000240168D5
:1022300041F010010160006806A900F01000009054
:1022400001A800F031F90498A8B100F04DF9400060
:102250001649174AB0FBF1F11648491E026040F2D8
:10226000E732C0E90324C0E90114846100F012FDE3
:10227000040003D015E000F037F9E9E70D4800F05D
:102280009BFD04000DD1362000F034F8102D07D24C
:1022900000222946362000F03BF80748056000E0A0
:1022A000012407B0204630BD4038024040420F00B4
:1022B000001000407C0900207C0000200C4882B007
:1022C000016841F480410160006800F480400090A2
:1022D0000748001F016841F080510160006800223A
:1022E00000F0805000900F21901E02B000F010B856
:1022F00044380240002809DB00F01F020121914010
:102300004009800000F1E020C0F800117047000093
:10231000F0B40E4B1B680C46C3F30223C3F1070550
:10232000042D00D90425191D072901D2002300E03E
:10233000DB1E012606FA05F1491E214099409E4008
:10234000761E16403143F0BC04F044BE0CED00E0B4
:10235000064900F0070208684FF6FF03184040EAFC
:102360000220034A10430860704700000CED00E0B3
:102370000000FA052DE9F0470E46050065D0DFF8AC
:102380001481D8F80000F7B200F00700B04207D27D
:1023900088F80070D8F8000000F00700B04254D16F
:1023A00028683D4C810712D5400703D5206840F4CA
:1023B000E05020602878000703D5206840F4604092
:1023C00020602068A96820F0F00008432060287889
:1023D000C0072DD0304968680839012812D002287A
:1023E00013D0032811D00968890700292DDA216844
:1023F00021F0030101432160FFF746F9814641F2D4
:10240000883A0EE009688903EFE709688901ECE77B
:10241000FFF73AF9A0EB0901514502D90320BDE8C5
:10242000F0872068696800F00C00B0EB810FEFD1F5
:10243000D8F80010404601F00701B14207D90770F3
:10244000006800F00700B04201D00120E7E72878DB
:10245000400705D52068E96820F4E0500843206073
:102460002878000706D52068296920F4604040EAF2
:10247000C100206000F058F82168084AC1F3031138
:10248000515CC8400649086006480068FFF7CAFE6C
:102490000020C4E7003C02400838024004A30008C2
:1024A000840000207C0000200F2202600C4A136888
:1024B00003F003034360136803F0F00383601368C1
:1024C00003F4E053C36012684FF4E05303EAD2020E
:1024D00002610448006800F00700086070470000CF
:1024E00008380240003C0240044805490068096879
:1024F000044AC1F38221515CC84070478400002027
:102500000838024014A30008044805490068096817
:10251000044AC1F34231515CC84070478400002036
:102520000838024014A30008154810B5006810F0E0
:102530000C02144813D01449042A0FD0082A0ED1D3
:102540000F4C241F2268236802F03F025B0207D56C
:102550002068C0F38810A0FB010106E0084610BD0A
:102560002168C1F38811A1FB00010023FDF78AFE59
:102570002168C1F30141491C4900B0FBF1F010BDD5
:10258000083802400024F40040787D012DE9F84F1E
:1025900004006ED02078DFF84C93C007A9F1040541
:1025A0004AD009F104000168C1F38101012908D072
:1025B0000068C0F3810002280AD1D9F80000400267
:1025C00006D52868800337D560680028E1D033E05D
:1025D0006068B0F5803F10D0B0F5A02F286810D00B
:1025E00020F480302860286820F48020286060680B
:1025F000A8B1FFF749F806460DE0286840F480309E
:10260000F4E740F480202860F7E700BFFFF73CF8CC
:10261000801B642873D828688003F7D50CE0FFF787
:1026200033F8064605E000BFFFF72EF8801B64284C
:10263000F0D828688003F7D42078DFF8AC828007D0
:102640004FF0000A3ED5A748001D016811F00C0F9D
:1026500008D00068C0F3810002280BD1D9F800002F
:10266000400207D42868800716D5E068012800D109
:1026700012E033E1E068B8B10120C8F80000FFF7CC
:1026800003F8064605E000BFFEF7FEFF801B0228A8
:10269000C0D828688007F7D52868216920F0F8009D
:1026A00040EAC10028600DE0C8F800A0FEF7ECFF8A
:1026B000064604E0FEF7E8FF801B02281FD82868C2
:1026C0008007F7D42078000722D5864F87486169B4
:1026D000703771B101210160FEF7D6FF064604E0B4
:1026E000FEF7D2FF801B022809D838688007F7D58B
:1026F0000EE0C0F800A0FEF7C7FF064605E082E046
:10270000FEF7C2FF801B02287DD838688007F7D407
:102710002078400768D5DFF8CCB100270BF13C0BDF
:10272000DBF80000C0000BD4DBF8001041F0805152
:10273000CBF80010DBF80000012700F0805000907B
:102740006B4E3068C00510D4306840F48070306043
:10275000FEF79AFF009005E0FEF796FF0099401AF9
:10276000022850D83068C005F6D55E4EA0686C3699
:1027700001280FD00528306810D020F0010030600B
:10278000306820F004003060A068B8B1FEF77CFF2C
:1027900000900FE0306840F00100F4E740F00400E2
:1027A0003060F7E7FEF770FF0099411A41F2883078
:1027B000814266D830688007F4D50EE0FEF764FFEA
:1027C000009007E0FEF760FF0099411A41F288305F
:1027D000814256D830688007F4D42FB1DBF800105E
:1027E00021F08051CBF80010A069C8B33D49091D04
:1027F0000968C1F3810102294AD00228504607D056
:10280000C8F8600000E03CE0FEF73EFF04463BE015
:102810004746C8F86000FEF737FF064605E000BFF0
:10282000FEF732FF801B02282BD828688001F7D4DE
:10283000D4E907010843A16A2E4A490802EB014185
:10284000626A41EA8211084394F82C1040EA01615F
:10285000C9F8001001203866FEF716FF044606E0AE
:102860003EE000BFFEF710FF001B022809D82868D1
:102870008001F7D534E000BFFEF706FF001B0228F9
:1028800002D90320BDE8F88F28688001F4D427E03E
:102890000128F7D0D9F80000E26900F480019142E4
:1028A0001CD1226A00F03F01914217D147F6C07156
:1028B000626A0140B1EB821F10D1A26A4FF0FF3370
:1028C00000F4403103EB5202B1EB024F06D194F811
:1028D0002C1000F07060B0EB016F01D00120D1E747
:1028E0000020CFE70438024000004742800E4742F4
:1028F000007000400000FFFF70B5040009D0606A5E
:10290000002540B125616561A56294F8510040B190
:102910000CE0012070BD6068B0F5827FF4D0E56105
:10292000F2E784F85050204600F044F8022084F882
:1029300051002068016821F040010160A0882189D0
:1029400000F4827001F404410843A18901F400619C
:102950000843217C01F002010843217D01F00101BF
:102960000843218B01F400710843217F01F03801F5
:10297000084394F8201001F080010843218D01F4F0
:102980000051084321680860A069042101EA104051
:1029900094F8241001F01001084321684860206871
:1029A000C16921F40061C1616565012084F85100AD
:1029B000002070BDF0B587B0044614216846FDF7CD
:1029C000ABFC1C492068884232D11B4800240168B6
:1029D00041F480510160006800F480500590164871
:1029E0001438016841F001010160016801F0010142
:1029F0000591016841F0020101600068022500F0C4
:102A0000020005902020CDE9000502AA0326052733
:102A100082E8D00069460948FEF72CFD3020CDE958
:102A2000000502AA694682E8D0000548FEF722FDAB
:102A300007B0F0BD003001404438024000000240C1
:102A4000000402402DE9F84F044690F8500000279A
:102A50001D461646894601280DD04FF0010B84F81B
:102A600050B0FEF711FE804694F85100BA46012896
:102A700004D0022793E00220BDE8F88FB9F1000FDF
:102A800073D0002E71D0032084F85100C4F854A0F4
:102A9000C4F83090A686E686C4F838A0A4F83CA016
:102AA000A4F83EA0C4F844A0C4F840A0A068B0F5C3
:102AB000004F09D12068016821F0400101602068C1
:102AC000016841F48041016020680168490603D42F
:102AD000016841F040010160E068B0F5006F606896
:102AE00003D030B3012E24D041E008B1012E1CD117
:102AF000206B21680088C86006E02068816889072B
:102B000009D5216B0988C160206B801C2063E08E91
:102B1000401EE08609E0FEF7B7FDA0EB0800A842E2
:102B200002D3681C01D031E07DB3E08E0028E4D1EF
:102B300020E0206B21680078087306E02068816837
:102B4000890709D5216B09780173206B401C20632C
:102B5000E08E401EE0860AE0FEF796FDA0EB08003E
:102B6000A84203D3681C02D010E017E06DB1E08EDC
:102B70000028E3D142462946204603F0D9FC08B19B
:102B800020206065A06818B106E0FFE7032706E093
:102B90002068C16880680090606D00B1012784F8EA
:102BA00051B084F850A0384666E77047704710B5BA
:102BB00090F83C20012A22D0012280F83C20CA68EB
:102BC0008C6822F4407222434C6822F480622243D3
:102BD0000C6822F4006222430C6922F480522243E2
:102BE0004C6922F400522243C969002322F4804236
:102BF0000A4301684A6480F83C30002010BD02207E
:102C000010BD000070B590F83C20012A32D001249C
:102C100080F83C40022280F83D2003685A689D6895
:102C200022F070060A6832435A60134B02689A42D7
:102C300014D0B2F1804F11D0104B9A420ED0104BED
:102C40009A420BD00F4B9A4208D00F4B9A4205D0B4
:102C50000E4B9A4202D00E4B9A4204D1496825F09D
:102C600080031943916080F83D40002180F83C10BA
:102C7000084670BD022070BD000001400004004005
:102C800000080040000C00400004014000400140EA
:102C90000018004010B5040003D094F83D0010B1B6
:102CA00007E0012010BD002084F83C00204600F021
:102CB0001FF8022084F83D00211D206803F0AAFDC2
:102CC000012084F8460084F83E0084F83F0084F830
:102CD000400084F8410084F8420084F8430084F8FE
:102CE000440084F8450084F83D00002010BD000039
:102CF00008B52C4A01682C48914216D1016841F070
:102D0000010101600068002200F00100009005212F
:102D10001820FFF7FDFA1820FFF7ECFA0022052132
:102D20001B20FFF7F5FA1B2036E0204A914210D114
:102D30001D48001F016841F0200101600068002269
:102D400000F02000009005213720FFF7E1FA37203E
:102D500022E0174A91420ED1016841F00201016060
:102D60000068002200F00200009005212D20FFF7EE
:102D7000CFFA2D2010E00F4A914211D1016841F4A1
:102D8000803101600068002200F48030009005214D
:102D90001820FFF7BDFA1820BDE80840FFF7AABACF
:102DA00008BD00000000014044380240001400400B
:102DB000000401400040014090F83D10012901D07D
:102DC00001207047022180F83D100168CA6842F076
:102DD0000102CA6000681149884214D0B0F1804FE6
:102DE00011D00F4988420ED00E4988420BD00E49AF
:102DF000884208D00D49884205D00D49884202D04A
:102E00000C49884204D1816801F00701062903D0EA
:102E1000016841F00101016000207047000001409D
:102E20000004004000080040000C00400004014085
:102E300000400140001800400168CA6822F0010209
:102E4000CA6001680A6A41F211131A4207D10A6A7C
:102E50009B101A4203D10A6822F001020A60012184
:102E600080F83D100020704770B5044690F83C0093
:102E70000025012817D0012684F83C60022084F840
:102E80003D002068826822F0770222F47F4282604F
:102E90000868502838D00DDC20284FD005DC90B3CE
:102EA000102811D14AE0022070BD302846D04028B9
:102EB0000AD13BE060282FD070280DD0B0F5805F9C
:102EC00003D0B0F5005F12D0012584F83D600020EA
:102ED00084F83C00284670BDCB68D1E90121206808
:102EE00003F009FD2068816841F0770109E0CB68B3
:102EF000D1E90121206803F0FEFC2068816841F4DB
:102F000080418160E1E719E0CA684968206803F000
:102F1000C7FD5021206806E0CA684968206803F0B0
:102F2000D0FD6021206803F0F0FCCEE7CA68496854
:102F3000206803F0B5FD40212068F4E722680146CF
:102F40001046F0E72DE9F0410D46040003D094F857
:102F50003D0018B108E00120BDE8F081002084F8B0
:102F60003C00204600F040F8022084F83D00206834
:102F7000816844F2070291438160211D206803F0BB
:102F800049FC226890689169166A2B68AF6903430F
:102F900040F20330814341EA0721A868EF69084302
:102FA0004FF6FC418843E96840EA0720014328695D
:102FB0002F6A000140EA0730084369686D6926F00E
:102FC000AA0646EA0515294393602268906154F8E1
:102FD000460B0162012004F81F09E0752076E076B7
:102FE0002077A0750020B7E770B586B0044614219D
:102FF0006846FDF791F9564923680024544A103970
:1030000002255448B3F1804F26D0534EB34257D1D6
:10301000136843F002031360126802F00202059283
:103020000A6842F001020A60096801F00101059195
:10303000C0210091CDE901546946CDE90345FEF771
:1030400019FA002205211D20FFF762F95FF01D002B
:10305000FFF750F906B070BD136843F00103136029
:10306000126802F0010205920A6842F001020A6049
:103070000A6802F0010205920A6842F002020A6040
:103080000968012601F0020105914FF40041009109
:10309000CDE90154CDE903466946FEF7EBF9082076
:1030A0000090CDE90154CDE9034669462B48FEF76F
:1030B000E1F9002205211C20FFF72AF91C20C7E7AF
:1030C000274EB34221D1106840F004001060106810
:1030D00000F004000590086840F0080008600868E7
:1030E000694600F0080005904FF440500090CDE98B
:1030F00001541C48CDE90345FEF7BCF90022052127
:103100001E20FFF705F91E20A2E7174EB342A1D1FA
:10311000136843F008031360126802F00802059276
:103120000A6842F001020A60096801F00101059194
:1031300003210091CDE901546946CDE90345FEF72D
:1031400099F9002205213220FFF7E2F832207FE7CB
:1031500040380240000002400004004000040240E9
:1031600000080040000C0240000C004070B590F8D0
:103170003E60044690F83F5090F8423090F843206B
:10318000022021B104290ED0012E1BD114E0012E02
:1031900018D1012B16D184F83E0084F84200012298
:1031A0000021206820E0012D0CD1012A0AD184F8E9
:1031B0003F0084F8430014E0012D03D1012B01D11D
:1031C000012A01D0012070BD84F83E0084F83F0040
:1031D00084F8420084F8430001220021206803F0B3
:1031E0007DFB01220421206803F078FB2068016840
:1031F00041F001010160002070BD704770B50446C8
:10320000006801694FF00005C943890715D4C168FA
:10321000C943890711D4E91E016101202077206884
:1032200080698007204602D0FFF7E7FF04E000F046
:103230000BF9204600F016FB257720680169C94389
:10324000490717D4C168C943490713D46FF0040173
:103250000161022020772068806910F4407F2046B9
:1032600002D0FFF7CAFF04E000F0EEF8204600F0BD
:10327000F9FA257720680169C943090716D4C1689E
:10328000C943090712D46FF00801016104202077B7
:103290002068C0698007204602D0FFF7AEFF04E037
:1032A00000F0D2F8204600F0DDFA257720680169A9
:1032B000C943C90617D4C168C943C90613D46FF0FE
:1032C00010010161082020772068C06910F4407F58
:1032D000204602D0FFF791FF04E000F0B5F8204649
:1032E00000F0C0FA257720680169C943C90708D1F1
:1032F000C168C943C90704D1891E0161204600F095
:1033000055FB20680169C943090609D4C168C9434E
:10331000090605D46FF0800101612046FFF745FCE6
:1033200020680169C943490609D4C168C9434906EF
:1033300005D46FF040010161204600F081FC206857
:103340000169C94389060BD4C168C943890607D4FA
:103350006FF0200101612046BDE87040FFF726BCF8
:1033600070BD000070B586B0044614216846FCF7B5
:10337000D3FF24682C4D00222C4902232C48AC4258
:1033800011D10C6844F010040C60096801F01001C0
:1033900005914FF428510091CDE901320121CDE989
:1033A0000321694613E0234E0325B44213D1086874
:1033B00040F0040008600868694600F004000590C9
:1033C0004FF470700090CDE901321B4813E0FEF716
:1033D00051F806B070BD194EB4420FD10C6844F0DC
:1033E00010040C60096801F0100105916021009142
:1033F000CDE901326946CDE90325E8E7104884426A
:10340000E7D1086840F0020008600868694600F0EB
:1034100002000590E0000090CDE901320920CDE9DD
:1034200003200848D3E70000000001403038024084
:10343000001002400004014000080240004001402A
:10344000001800400004024070B53D4A01680025A4
:103450003C4C91425CD13C4A007F1268012804D068
:10346000022815D0042826D037E0384803683548AC
:10347000012B008801D013B103E0401C00E0401E86
:103480002080486B3249098811FA80F0506324E0AB
:10349000304803682B48012B408801D013B103E06A
:1034A000401C00E0401E6080886B2B49098811FA9F
:1034B00080F0906311E0294803682248012B80883E
:1034C00001D013B103E0401C00E0401EA080C86B97
:1034D0002349098811FA80F0D063E0882188884266
:1034E00004D125800021184800F0B6F820896188B1
:1034F000884204D165800421134800F0ADF860894A
:10350000A188884204D1A58008210F4800F0A4F8C2
:1035100021884FF6FF70814205D06288824202D036
:10352000A28882420AD1814200D1258061888142ED
:1035300000D16580A188814200D1A58070BD0000C6
:10354000000001404A010020A8030020580000208C
:10355000520000205C00002050000020600000208D
:103560005400002030B500250446022249B1042948
:1035700012D008294CD094F84100012853D00120E2
:1035800030BD94F83E000128F9D184F83E2020682F
:10359000C26842F0020209E094F83F000128EED12F
:1035A00084F83F202068C26842F00402C260012211
:1035B000206803F093F921492068214A884201D00C
:1035C000904203D1436C43F4004343642068884233
:1035D00013D0B0F1804F10D01A4988420DD01A494B
:1035E00088420AD01949884207D0904205D018492C
:1035F000884202D01749884204D1816801F007014E
:10360000062903D0016841F001010160284630BD60
:1036100094F840000128B2D184F840202068C268A4
:1036200042F00802C2E784F841200C2901D00125AC
:10363000ECE72068C26842F01002B7E700000140E2
:10364000000401400004004000080040000C00405D
:10365000004001400018004070B50D0004464FF0D6
:10366000000607D0042D0AD0082D0DD00C2D10D047
:1036700001263FE02068C16821F002010DE02068CA
:10368000C16821F0040108E02068C16821F0080148
:1036900003E02068C16821F01001C16000222946C2
:1036A000206803F01BF9194B41F2111120688A10B0
:1036B000984202D0164B984209D1036A0B4206D1B8
:1036C000036A134203D1436C23F40043436420682C
:1036D000036A0B4206D1016A114203D1016821F04D
:1036E0000101016001203DB1042D08D0082D09D051
:1036F00084F84100304670BD84F83E00FAE784F853
:103700003F00F7E784F84000F4E7000000000140C4
:103710000004014070B5044690F83C0000260D46B8
:1037200001280FD0012084F83C006AB1042A1DD082
:10373000082A2FD00C2A3FD00126002084F83C0014
:10374000304670BD022070BD206803F0E7F82068A5
:10375000816941F0080181612068816921F00401DB
:103760008161206881692A69114311E0206803F0B2
:1037700005F92068816941F40061816120688169EF
:1037800021F480618161206881692A6941EA02210E
:103790008161D2E7206803F027F92068C16941F010
:1037A0000801C1612068C16921F00401C16120687C
:1037B000C1692A69114311E0206803F049F92068C2
:1037C000C16941F40061C1612068C16921F480616F
:1037D000C1612068C1692A6941EA0221C161ACE77F
:1037E00010B5040003D094F83D0010B107E00120AB
:1037F00010BD002084F83C00204600F01FF8022095
:1038000084F83D00211D206803F004F8012084F8AD
:10381000460084F83E0084F83F0084F8400084F8B5
:10382000410084F8420084F8430084F8440084F89E
:10383000450084F83D00002010BD000008B5006878
:103840000649884208D10648016841F040010160FC
:10385000006800F04000009008BD00000018004023
:10386000403802407047000010B50446022249B1BA
:1038700004290ED0082913D094F84100012816D04D
:10388000012010BD94F83E000128F9D184F83E20B3
:103890000FE094F83F000128F2D184F83F2008E0BF
:1038A00094F840000128EBD184F8402001E084F82E
:1038B00041200122206803F011F816492068164AB9
:1038C000884201D0904203D1436C43F400434364E7
:1038D0002068884213D0B0F1804F10D00F49884241
:1038E0000DD00F4988420AD00E49884207D0904235
:1038F00005D00D49884202D00C49884204D1816824
:1039000001F00701062903D0016841F001010160BF
:10391000002010BD000001400004014000040040F0
:1039200000080040000C004000400140001800402A
:1039300030B504460D460068002202F0CFFF194B57
:1039400041F2111120688A10984202D0164B984219
:1039500009D1036A0B4206D1036A134203D1436CB7
:1039600023F4004343642068036A0B4206D1016AD2
:10397000114203D1016821F00101016001203DB134
:10398000042D08D0082D09D084F84100002030BD56
:1039900084F83E00FAE784F83F00F7E784F8400037
:1039A000F4E7000000000140000401402DE9F04769
:1039B00006462DED0C8B00688C49884201D1FEF73C
:1039C0000FFC8B4800258B4C86427DD1E088401C43
:1039D00086B20520B6FBF0F100FB1160E6800028FE
:1039E00073D1854800688146406A00B200EE100A33
:1039F0006080B8EEC00A9FED811AF3EE0E1AF2EE67
:103A00000A0A20EE010ADFF8F8A180EE212A82EEF0
:103A1000200AB5EE002A20EE020A84ED020ADAF846
:103A20000010496A49420FB200EE107AA780B8EE42
:103A3000C00A20EE011A81EE210A80EE201A21EE42
:103A400002AA84ED03AA2178B1F100084DD0FCF759
:103A5000F6FD94ED101B53EC112BFCF768FC41ECC8
:103A6000190B384684ED109BFCF7E9FD94ED121B11
:103A700053EC112BFCF75BFC41EC180B84ED128B23
:103A80009FED60BB51EC190B53EC1B2BFCF7F6FCC4
:103A90009FED5E9B53EC192BFCF762FD9FED5DCB18
:103AA00053EC1C2BFCF75CFD9FED5CDB53EC1D2BFA
:103AB000FCF7E4FCFCF7E1FD206153EC1B2B51EC1F
:103AC000180BFCF7DBFC01E05AE03FE053EC192B4C
:103AD000FCF746FD53EC1C2BFCF742FD53EC1D2B71
:103AE000FCF7CCFCFCF7C9FD6061C9F82450DAF89A
:103AF000000045620A20B6FBF0F100FB11600028CF
:103B000024D1B8F1000F25D004F0D8FDE069216977
:103B1000421D914219DC401F814216DBD4E9051099
:103B2000421F914211DB401D81420EDC40489FED57
:103B30003D0B84ED100B84ED120B9FED3C0A80EDE4
:103B4000000A3C4880ED000A2570E580BDEC0C8B36
:103B5000BDE8F087B0EE4A0A364802F0C7FCBDEE79
:103B6000C00A334810EE106A94ED020A02F0BEFC5F
:103B7000BDEEC00A314610EE100A02F013FAE4E777
:103B80002D4930688842E1D1A06B012815D0022868
:103B90001FD00328DAD1A06A401CA062616B884262
:103BA000D4DB2648A562FFF747F90821BDEC0C8B52
:103BB000BDE8F0472148FFF7BBBE206A401C2062E9
:103BC000E16A8842C2DB1D482562FFF735F9002112
:103BD000ECE7606A401C6062216B8842B6DB1748E4
:103BE0006562FFF729F90421E0E7000000100040BA
:103BF000A005002000000020800400200000C84232
:103C0000C804002000000000008076400000000092
:103C100000003E400000000000002A4000000000BC
:103C20000000D03F00000000000000000000000085
:103C3000785B0020985B002000000140A803002072
:103C40007047704770470000F8B50168044608687F
:103C5000CA684B6910F00F0F4FF0000559D003F000
:103C6000010602F49077374365D0C10705D0D1052E
:103C700003D5216C41F001012164410705D5D90725
:103C800003D0216C41F002012164810705D5D907D9
:103C900003D0216C41F004012164010707D502F033
:103CA0002001314303D0216C41F008012164216CD3
:103CB00000293AD0800604D5900602D5204602F0AD
:103CC000C2FF20684069216CC0F38010090700D44E
:103CD00060B3204602F082FF20684069400621D58B
:103CE0002068143050E8001F21F0400140E8001225
:103CF000002AF5D1A06BA8B16C490165A06BFDF756
:103D00001EFA002811D0A06B016D01B0BDE8F04093
:103D1000084783060FD593060DD52046BDE8F84029
:103D200002F091BF2046FFF78DFFF8BD2046FFF758
:103D300089FF2564F8BD266B2023012E79D1C606A4
:103D400077D5D60675D5086848680090486940065A
:103D500040D5A16B086840680004000CEAD0A28D31
:103D60008242E7D9E085C869B0F5807F2DD0206810
:103D70000C3050E8001F21F4807140E80012002A46
:103D8000F5D12068143050E8001F21F0010140E80F
:103D90000012002AF5D12068143050E8001F21F0ED
:103DA000400140E80012002AF5D184F83E30256336
:103DB00020680C3050E8001F21F0100140E800128C
:103DC000002AF5D1A06BFDF771F9A08DE18D401AA5
:103DD00081B229E0A08DE18D401A81B2E08D0028EA
:103DE000A8D00029A6D020680C3050E8002F22F47B
:103DF000907240E80026002EF5D12068143050E87B
:103E0000002F22F0010240E80026002EF5D184F8B0
:103E10003E30256320680C3050E8002F22F010025D
:103E200040E80023002BF5D12046FFF70AFFF8BD3C
:103E3000FFE705062BD5150629D594F83D00212866
:103E4000F5D1A068B0F5805F01D12069B0B1206ADA
:103E5000411C2162216800784860E08C401E00040B
:103E6000000CE084E3D12068C16821F08001C160CA
:103E70002068C16841F04001C160D8E7206A00882D
:103E8000C0F308004860206A801C2062E5E7400615
:103E9000CDD55006CBD5CA68204622F04002CA6074
:103EA00084F83D3000F069FAC1E70000E76A0008D5
:103EB00070B5040004D094F83D00002510B106E070
:103EC000012070BD84F83C50204600F023F82420E7
:103ED00084F83D002068C16821F40051C16020468B
:103EE00002F012FF2068016921F49041016120680D
:103EF000416921F02A0141612068C16841F4005103
:103F0000C1602564202084F83D0084F83E00002034
:103F100070BD00002DE9F04F87B0044614216846BB
:103F2000FCF7FAF97549022622687548DFF8D4C112
:103F30000025B7064FF003084FF007094FF0400B7C
:103F40004FF4806A8A424ED16D4914310A6842F0BA
:103F500010020A60096801F010010591016841F042
:103F600001010160006802AA00F0010005904FF411
:103F7000C060CDE9000682E8200369466046FDF78F
:103F800079FA624E6048B8463060C6E90175C6E904
:103F9000035A7561B561F561356257463046756201
:103FA000FDF7B4F908B1FCF729FEA663B463574ED8
:103FB000554860367830C6E903577561B561F561DB
:103FC0003562756286E801093046FDF79FF908B150
:103FD000FCF714FE6663002205212520B463FEF77A
:103FE00097F925204EE04649494B10319A424ED16F
:103FF0000A6842F400320A60096801F40031059150
:10400000016841F001010160006802AA00F00100AE
:1040100005900C20CDE9000682E820036946604641
:10402000FDF728FA394E3B48C036D0463060C6E925
:104030000175C6E9035A7561B561F56135623046AF
:104040007562FDF763F908B1FCF7D8FDA663B463A8
:10405000314E3048C6E903587561B561F561356286
:104060001830756286E881083046FDF74FF908B1CF
:10407000FCF7C4FD6663002205212620B463FEF729
:1040800047F92620FEF736F907B0BDE8F08F234B3D
:104090009A42F9D10A6842F480220A60096801F460
:1040A00080210591016841F002010160016801F081
:1040B00002010591016841F008010160006802AA4F
:1040C00000F008000590D814CDE9000682E820032E
:1040D00069461348FDF7CEF94FF48070CDE900062C
:1040E00002AA694682E820030E48FDF7C3F90022C0
:1040F00005212720FEF70CF92720C3E70010014017
:10410000303802400000024040640240FC070020BA
:1041100000440040886002401C0900200048004024
:1041200000040240000C024090F83E30202B0ED1DB
:1041300059B152B190F83C30012B08D0012380F8DE
:104140003C300023036302F065BE0120704702206B
:10415000704790F83E30202B0ED159B152B190F8F3
:104160003C30012B08D0012380F83C30002303634E
:1041700002F09ABE01207047022070472DE9F041FD
:104180004349444C00262DED048B8842424D17D103
:104190002878AA285ED12879FF285BD16878642125
:1041A00010FB01F0A97801EB810100EB4100E978F7
:1041B0000844A0604FF400413848FDF758FA49E040
:1041C00033494431884245D000683549884241D15D
:1041D0006178532959D0207878B3324F60889FEDA9
:1041E000328B9FED339B3954401C80B2608007288E
:1041F00023D366802670B7F80500FCF731FA53EC3C
:10420000182BFCF73BF953EC192BFCF737F99FED12
:104210002A1B53EC112BFCF763FA0ED0B7F80500FC
:10422000FCF71EFA53EC182BFCF728F953EC192B6A
:10423000FCF724F9FCF76CFA60606088FE2800D374
:104240006680144912480122491C8830FFF781FF1B
:104250000028F6D000202E54401C0828FBDB082242
:104260000D490B48FFF760FF09480122144944300B
:10427000FFF75AFFBDEC048B0122BDE8F041054970
:104280000348491C8830FFF764BF01202070A4E771
:10429000300700206C000020DE010020000C0240EE
:1042A0000048004030060020000000000000003FF1
:1042B00000000000008066400000000000000000D8
:1042C000D4010020704700002DE9F843044690F81F
:1042D0003D001F4616460D4620284CD1C5B1BEB143
:1042E00094F83C00012846D0012084F83C004FF0AF
:1042F0000008C4F84080212084F83D00FDF7C4F98F
:10430000A6848146E684A068B0F5805F03D004E00F
:104310000120BDE8F883206928B12E465FF0000532
:1043200084F83C800EE00026FAE78021204602F067
:10433000D8FDA0B9AEB116F8010B21684860E08C39
:10434000401EE084E08C4B464FF0000200970028AE
:10435000EBD14FF04001204602F0C3FD30B1032005
:10436000D7E735F8020BC0F30800E6E7202084F811
:104370003D000020CDE70220CBE77047FEE70000BC
:104380000148FDF789B900004802002038B5806B6C
:10439000002190F83D202B4B46F2A8141B68B3FB7C
:1043A000F4F3C3EBC30303EB830300933BB15B1E46
:1043B000009303681B689B0505D5009BF6E7036C1B
:1043C00043F020030364436B03B1D963836B03B1F0
:1043D000D96303681C6824F480641C604185436BC6
:1043E00003B11965836B03B1196503681C6824F078
:1043F00001041C6090F83D402023602C0BD0282441
:1044000034EA02020FD080F83D3080F83E1000BF41
:10441000FDF75AFA38BD80F83D3080F83E1001644F
:10442000FDF738F938BD0268136843F001031360E3
:104430000268136843F480631360016380F83D40B1
:10444000E6E700008400002070B5846B0025616BF6
:1044500001B1CD63A16B01B1CD63FCF782FE0228EF
:1044600011D02068016821F48061016065852020F9
:1044700084F83D0084F83E50206C40F01000206429
:104480002046FDF721FA70BD2DE9F041846B94F8C8
:104490003D2094F83E50E16A2068436823F440735D
:1044A0004360636B002003B1D863A36B03B1D8638F
:1044B000212333EA02074FF022060CD036EA020726
:1044C00001D1202D07D094F83E20002A21D0628D02
:1044D000012A20D024E021684D6825F400654D6054
:1044E00060852820292A02D02A2A07D00CE02363DD
:1044F00084F83D002046FDF772FE05E0266384F84F
:104500003D002046FDF76AFE2068416841F4407195
:104510004160BDE8F0812268136823F48063136072
:104520002268536823F44073536011F5803F06D02E
:10453000082904D0B1F12A4F01D0202904D12168E3
:104540000A6842F400720A6021684A6822F48052C4
:104550004A6021684A6822F400624A606085216CE2
:1045600019B12046FDF7B0F9D3E7202184F83D10BA
:1045700094F83E1084F83E00402905D012202063B4
:104580002046FDF768FAC4E720632046FDF72EFBBE
:10459000BFE7000070B5044690F83D0094F83E1067
:1045A000102901D0402906D1222804D121680A68A7
:1045B00022F400620A60282131EA00024FF000056F
:1045C0004FF0200626D021684968090505D46028E7
:1045D00003D084F83D6084F83E502563206841682C
:1045E000090537D5416821F400614160606B90F89E
:1045F00035203C49012A11D00165606BFCF79FFD15
:1046000038B32068016821F00101016084F83D6041
:10461000606B1CE0256384F83D10DFE7A06B01654B
:10462000A06BFCF78CFDA0B120684169C943490625
:1046300005D40069616A0870606A401C6062206885
:10464000016821F00101016084F83D60A06B016DFB
:10465000884710E094F83D10602910D04169C943A3
:10466000490605D40069616A0870606A401C60628E
:104670002046FDF729F9206CC1071CD115E084F80C
:104680003D6025644169C943490605D40069616AF2
:104690000870606A401C60622068016821F00101B6
:1046A00001602046FCF7F6FFE5E7810703D44107E8
:1046B00001D4000704D52068416821F4E06141601D
:1046C00094F83D00216C49070BD5282809D10648EC
:1046D000E062256384F83D6084F83E502046FDF793
:1046E000B9F970BD8D4300080000FFFF01684A69F9
:1046F000D24352050FD46FF480624A61002140F822
:10470000301F202242738173026942F00402026169
:104710000173012070470020704710B5C26A438DB5
:104720000168042B06D0438D032B08D0438D022B48
:104730001DD012E04A6822F480624A600CE04B68A7
:1047400023F480634B60042A06D0022A04D0016857
:104750000A6822F480620A6001680969426A11707D
:10476000416A491C4162418D491E418510BD012AA3
:1047700030D0102A2ED0042A30D0022A2ED00A6837
:1047800042F400720A6001680969426A1170416A64
:10479000491C4162428D521E4285026812690A70AC
:1047A000416A491C4162418D491E418501684A6840
:1047B00022F440724A60202180F83D1090F83E209B
:1047C0000021402A80F83E100CD012210163FDF731
:1047D00042F910BD0A6822F48062D3E70A6842F405
:1047E0008062CFE70163FDF701FA10BD38B590F89C
:1047F0003D1022290FD1418D03290DD90168096986
:10480000426A1170416A491C4162418D491E4185CD
:10481000418D032906D038BDC26A022A02D001297F
:1048200006D029B10068416821F48061416038BD3B
:10483000274946F2A81300220968B1FBF3F101EB06
:104840008101009101682023009C641E009422D005
:104850000C68A405F8D40C6824F480640C6001682A
:104860004C6824F4E0644C6001680969446A217072
:10487000416A491C4162418D491E418580F83D30A5
:1048800090F83E1080F83E2040291DD0122101638F
:10489000FDF7E1F838BD046C44F0200404644C6872
:1048A00024F4E0644C6001680969446A2170416A3B
:1048B000491C4162418D491E418580F83D3080F898
:1048C0003E20FDF701F838BD0263FDF78FF938BDD2
:1048D0008400002010B5C26A90F83D1021290BD148
:1048E000418D51B1416A026809781161416A491CE0
:1048F0004162418D491E418510BD20230021082AB7
:1049000013D0202A11D012F5803F0ED002685468CF
:1049100024F4E06454601122026380F83E1080F8B1
:104920003D3000BFFDF798F810BD0268546824F4CC
:10493000E06454600268146844F400741460016315
:1049400080F83D3090F83E2080F83E10402AE9D1B2
:10495000FDF74EF910BD000010B590F83D1090F82D
:104960003E30C26A048DB4B1212903D0402B11D14D
:1049700022290FD1418DE1B390F83E10402942D059
:10498000416A026809781161416A491C4162418D9E
:10499000491E418510BD2129E8D120230021082A84
:1049A00013D0202A11D012F5803F0ED0026854682F
:1049B00024F4E06454601122026380F83E1080F811
:1049C0003D3000BFFDF748F810BD0268546824F47C
:1049D000E06454600268146844F400741460016375
:1049E00080F83D3090F83E2080F83E10402AE9D112
:1049F00000E002E0FDF7FCF810BD0068416821F41A
:104A00008061416010BDBDE8104000F0D3B80000E7
:104A100078B590F83E50C26A036B90F83D60002470
:104A20000168222E7AD1066D0EB9402D76D0056D23
:104A30001DB90569B5F5404F09D0458D05B3468DC3
:104A4000384D012E0ED0438D022B3AD05DE04A69DD
:104A50008A6900920A6842F480720A60016D491CFA
:104A6000016578BDAA4213D10A6822F480620A6007
:104A700001684A68120503D50A6822F4806216E0CC
:104A80004A698A6900920A6842F400720A6039E051
:104A9000082A10D0202A0ED0122B0AD0042A03D0C4
:104AA000022A01D0102AE7D10A6842F480620A6023
:104AB00024E0012AE0D00A6822F480620A600168DA
:104AC000DEE7042A21D0022A1FD0102A1DD00B684D
:104AD00023F480630B6001680B6843F400630B6090
:104AE00001684B681B0509D5AA4212D0012A10D0D3
:104AF000082A0ED0102A0CD0202A0AD001684A6950
:104B000089690091046578BD08E00B6843F480630F
:104B1000E5E74A6842F480524A60EFE748698869ED
:104B20000090F0E70000FFFF90F83E10402910D001
:104B30000169B1F5804F19D0016DA9B3016D01294B
:104B400010D1416C5FF0F10201F4407142EAD111E1
:104B500006E0016D0029416C05D0C9B241F00101A8
:104B600000680161704701F0FE01F9E790F83D101F
:104B70002129416C09D0C9B241F0010102681161DB
:104B8000416B29B1C96B49B902E001F0FE01F5E7BB
:104B9000816B0029E6D0C96B0029E3D00068416829
:104BA00041F4006141607047FFE7416CF02201F47D
:104BB0004071CBE710B590F83D10026D22B3026D45
:104BC000012A2FD0026D022A1DD122292FD0428D19
:104BD0000AB1212933D0428D002A14D1212912D1C2
:104BE00001684A6822F4E0624A6001680A6842F497
:104BF00000720A6000210163202280F83D2080F8C5
:104C00003E10FCF7F5FF10BDC16C0129816C02D08C
:104C1000C1F3072108E00268C9B21161016D891C66
:104C2000016510BD816CC9B20268116104E00168C0
:104C30000A6842F480720A60016D491CF0E7416A1B
:104C4000026809781161416A491C4162418D491E1F
:104C5000418510BD2DE9F84F0446006889460B9D3B
:104C600001689846174641F4806101602068016838
:104C700041F48071016000954FF0011B00225946FC
:104C800020460A9B00F0B0F94FF4007A40B120684A
:104C90000068C00501D5C4F840A00320BDE8F88F26
:104CA000216809F0FE0008612B46284920460A9A2F
:104CB00000F0CEF9F0BB20684169806900902A4677
:104CC00020460A9900F042FA40B1206C04283AD1FB
:104CD0002068016841F40071016034E0FEB2B8F16F
:104CE000010F09D02168380A08612A4620460A992E
:104CF00000F02CFA0028E8D1206806612A462046F8
:104D00000A9900F023FA0028DFD12068016841F4F5
:104D10008071016000950022594620460A9B00F0F0
:104D200063F90028B3D1216809F0FF0040F00100C9
:104D3000086100E007E02B46044920460A9A00F08B
:104D400087F90028AAD00120A8E70000020001008E
:104D50002DE9F843044600680D46DDE9089701682F
:104D60009846164641F4807101604B4600224FF090
:104D700001112046009700F037F948B1206800681B
:104D8000C00502D54FF4007020640320BDE8F8830D
:104D9000216805F0FE0008613B464A461549204659
:104DA00000F056F988B920684169806900903A4658
:104DB0004946204600F0CAF948B1206C042804D1C5
:104DC0002068016841F4007101600120DEE7F5B25E
:104DD000B8F1010F09D02168300A08613A46494606
:104DE000204600F0B3F90028E7D1206805610020D3
:104DF000CCE700000200010038B50C4690F83D20D9
:104E000000212825954302680B4605D05169916918
:104E1000009180F83C3038BD556825F480655560B8
:104E2000E243540700D50121120601D5828900E032
:104E3000028B80F83C3092B2FCF72DFC38BD0000AC
:104E4000F8B590F83D6004460068416821F4E061DF
:104E500041602068002541690091016841F001012D
:104E600001602068016821F4806101602068416868
:104E7000090520D5474F222E48D02A2E46D0616BF7
:104E8000096849686185618D19B1216C41F004019F
:104E90002164416821F400614160606BFCF763F9B3
:104EA000012808D0606B0765606BFCF748F910B10A
:104EB000606B016D8847608D08B320684169C94304
:104EC000490708D40069616A0870606A401C606222
:104ED000608D401E608520684169C943490608D439
:104EE0000069616A0870606A401C6062608D401EE3
:104EF0006085608D18B1206C40F004002064206C47
:104F000000B32046BDE8F840FFF744BBA16B096839
:104F100049686185618D19B1216C41F004012164FA
:104F2000416821F400614160A06BFCF71CF9012885
:104F3000C1D0A06B0765A06BFCF701F90028BAD0BF
:104F4000A06BB6E72A2E06D12563282084F83D0001
:104F50002046FDF743F994F83D10202028290DD074
:104F6000216B222901D0222E07D1256384F83D0030
:104F700084F83E502046FDF731F9F8BD0649E1625C
:104F8000256384F83D0084F83E502046FCF762FD1E
:104F9000F8BD00008D4300080000FFFF70B5164605
:104FA0000D4604460DE02046FFF7A0FB08B10120A6
:104FB00070BD681C05D0FCF767FB801BA84207D8B2
:104FC00035B120684069C0434007ECD4002070BD73
:104FD000002044F8300F20216173A073216941F053
:104FE000200121612073E2E72DE9F0471E4690463B
:104FF0000D460446C1F30747DDF8209008E0701C19
:1050000006D0FCF741FBA0EB0900B0420FD876B107
:105010002068012F18D0806925EA00000004000CE8
:1050200014D000214145EAD00020BDE8F0870020DF
:1050300044F8300F20216173A073216941F02001F1
:10504000216120730120F0E74069E5E70121E9E7EC
:105050002DE9F0479A4691460E46044600254FF04A
:105060002008C1F3074725E020684069C043400598
:1050700014D42068016841F40071016021686FF464
:1050800080604861256384F83D8084F83E50206C40
:1050900040F00400206484F83C501FE0B9F1FF3F69
:1050A00008D0FCF7F1FAA0EB0A0149450CD8B9F198
:1050B000000F09D02068012F13D0806926EA000074
:1050C0000004000C0BD0CFE744F8305F84F80D806B
:1050D000A573206940F02000206125730120BDE800
:1050E000F0874069EAE72DE9F041002590460E4639
:1050F0000446202717E04069C043C0060CD454F88A
:10510000301B6FF01000486144F810596777A5779D
:10511000206A2062257717E0FCF7B6FAA0EB0800BA
:10512000B04208D83EB120684169C9434906E2D47B
:105130000020BDE8F08144F8305F6773A5732069F3
:1051400040F02000206125730120F2E770B516467B
:105150000D4604460DE02046FFF7C8FA08B10120CD
:1051600070BD681C05D0FCF78FFA801BA84207D8D9
:1051700035B120684069C0430006ECD4002070BD02
:10518000002044F8300F20216173A073216941F0A1
:10519000200121612073E2E72DE9F047174C814699
:1051A00000216088401E83B22088401E82B20846DB
:1051B00000F018F9124F4FF40078002241463846AB
:1051C000FCF75DFA012291023846FCF758FA0026F6
:1051D00009E0002503E0484600F09EF96D1C208898
:1051E000A842F8D8761C6088B042F2D841463846CA
:1051F000BDE8F0470122FCF742BA0000F85B00204E
:10520000000C024010B500F0D5F8F72000F032F99C
:10521000A92000F015F9512000F012F92C2000F01F
:105220000FF9822000F00CF9C02000F023F91120C2
:1052300000F006F9092000F003F9C12000F01AF986
:10524000412000F0FDF8C52000F014F9002000F026
:10525000F7F80A2000F0F4F8802000F0F1F8B1200F
:1052600000F008F9B02000F0EBF8112000F0E8F8A9
:10527000B42000F0FFF8022000F0E2F8B62000F0C1
:10528000F9F8022000F0DCF8422000F0D9F8B7204D
:1052900000F0F0F8C62000F0D3F8BE2000F0EAF8E5
:1052A000002000F0CDF8042000F0CAF8E92000F05A
:1052B000E1F8002000F0C4F8362000F0DBF86820A8
:1052C00000F0BEF83A2000F0D5F8662000F0B8F8FB
:1052D000E02000F0CFF8002000F0B2F8072000F046
:1052E000AFF8102000F0ACF8092000F0A9F8172062
:1052F00000F0A6F80B2000F0A3F8412000F0A0F881
:10530000892000F09DF84B2000F09AF80A2000F068
:1053100097F80C2000F094F80E2000F091F8182077
:1053200000F08EF81B2000F08BF80F2000F088F8BA
:10533000E12000F09FF8002000F082F8172000F034
:105340007FF81A2000F07CF8042000F079F80E2095
:1053500000F076F8062000F073F82F2000F070F8C7
:10536000452000F06DF8432000F06AF8022000F0BC
:1053700067F80A2000F064F8092000F061F8322094
:1053800000F05EF8362000F05BF80F2000F058F8CF
:10539000112000F06FF87820FBF715FC292000F0B1
:1053A00069F8032000F090F8BDE810404FF6FF7058
:1053B000FFF7F2BE70B50A4D4FF40064002221469B
:1053C0002846FCF75CF96420FBF7FDFB012221462F
:1053D0002846FCF754F9BDE870403220FBF7F3BBD8
:1053E000000C02402DE9F041DFF8508007461C46D2
:1053F00015460E4698F80A0000F03CF8380A00F00E
:105400001FF8F8B200F01CF8280A00F019F8E8B20A
:1054100000F016F898F80C0000F02CF8300A00F0B4
:105420000FF8F0B200F00CF8200A00F009F8E0B232
:1054300000F006F8BDE8F04100F036B8F85B002057
:1054400031B50B4D4FF40074002221462846FCF77D
:1054500016F9012291022846FCF711F9012168464C
:1054600001F0EEF8012221462846FCF708F938BD84
:10547000000C024031B50B4D4FF400740022214660
:105480002846FCF7FCF8002261002846FCF7F7F8F4
:105490000121684601F0D4F8012221462846FCF794
:1054A000EEF838BD000C02400148007AFFF7E2BF79
:1054B000F85B002010B50C46FFF7DCFFE0B2BDE85A
:1054C0001040FFF7BDBF000012492A224FF4F073CD
:1054D0004A812B228A812C220A814FF4A07258B172
:1054E00001280DD002280FD0032811D10B804A804B
:1054F000A8213620FFF7DEBF0A804B800821F8E79D
:105500000B804A806821F4E70A804B80C821F0E7CD
:1055100070470000F85B002010B50446F82000EA50
:105520001420FFF78DFFFC2000EAD400FFF788FF6E
:10553000E006BDE81040000EFFF782BF10B51C4822
:10554000FCF7C4F980216B2000F088F800216B2063
:1055500000F084F8032000F04CF8002000F044F83C
:10556000322000F063F80021382000F077F80021A5
:105570006A2000F073F80021232000F06FF88021EA
:10558000372000F06BF8752000F014F8682801D07F
:10559000012010BD01216B2000F060F800216C207B
:1055A00000F05CF8322000F041F8002010BD00004F
:1055B0009C0200201FB500218DF80C1040F6FF73EF
:1055C000012203A98DE80E0013460246D1210548A9
:1055D000FCF72AFB6420FBF73BFF9DF80C0004B0AE
:1055E00010BD00009C020020C006010E1C2000F02F
:1055F00035B8C006010E1B2000F030B8BC2801D31E
:10560000012110E0622801D302210CE02A2801D3F5
:10561000032108E0142801D3042104E00A2801D35F
:10562000052100E006211A2000F018B810B5044644
:105630004FF47A70844201D9044602E0042C00D26F
:105640000424B0FBF4F0401EC1B2192000F006F8AB
:105650006008BDE81040FFF7D1BF00001FB540F65D
:10566000FF738DF80C10012203A98DE80E0013467C
:105670000246D0210448FCF7D3FB6420FBF7E8FE88
:1056800004B0002010BD00009C0200202A4808B58C
:105690000268002142F400120260026802F4001263
:1056A0000092026842F4800202600068234A00F41B
:1056B000800000902248C0E9002180228260920090
:1056C000C2605200C0E9042181610422C161C0E9C5
:1056D00008120322C0E90A210163FBF717FE08B193
:1056E000FBF78CFA002205211020FCF711FE102098
:1056F000FCF700FE002205211120FCF709FE112015
:10570000FCF7F8FD002205212F20FCF701FE2F20D9
:10571000FCF7F0FD002205213A20FCF7F9FD3A20C4
:10572000FCF7E8FD002205214620FCF7F1FDBDE86D
:1057300008404620FCF7DEBD3038024010640240CD
:10574000E801002010B5074A0021074803F006F9D8
:10575000064C044A002120602432054803F0FEF87C
:10576000606010BDB4A20008556600086400002007
:10577000616600082DE9F04F87B014216846FAF7FA
:10578000CBFD66480024016841F01001016001680A
:1057900001F010010591016841F004010160016808
:1057A00001F004010591016841F0200101600168E8
:1057B00001F020010591016841F08001016001685C
:1057C00001F080010591016841F00101016001686B
:1057D00001F001010591016841F0020101600168D9
:1057E00001F002010591016841F0080101600168C2
:1057F00001F008010591016841F040010160006875
:10580000DFF81C9100F04000059000224FF4775122
:105810004846FBF734FFDFF80CA100220721504671
:10582000FBF72DFFDFF800B14FF48857002239460F
:105830005846FBF724FF00224CF67F613B48FBF7FC
:105840001EFF002208213A48FBF719FF4FF4C05809
:10585000002241463748FBF712FF1E2001258DE844
:10586000310069465846FBF705FE4FF4235000907F
:10587000CDE90154694648460394FBF7FBFD4FF41C
:10588000A8500226CDE90005CDE902466946484602
:10589000FBF7F0FD0720CDE90005CDE9024669469A
:1058A0005046FBF7E7FD0097CDE90154694658469D
:1058B0000394FBF7DFFDA80200903802CDE9010454
:1058C00069465846FBF7D6FD4FF46060CDE9000508
:1058D000CDE9024669461548FBF7CCFD4CF27F0046
:1058E0000090CDE90154694610480394FBF7C2FDCE
:1058F00008200090CDE9015469460D480394FBF758
:10590000B9FDCDF80080CDE90154694609480394FA
:10591000FBF7B0FD07B0BDE8F08F00003038024063
:10592000001402400004024000100240000C02403B
:1059300000180240000802400D4810B50B490160F4
:105940000C49416000214FF480428160C0E903129C
:1059500041618161C1610162FBF7B8FF002803D09A
:10596000BDE81040FBF74AB910BD000000540040EC
:1059700048020020801A06000D4810B50B4901604E
:105980000C49416000214FF480428160C0E903125C
:1059900041618161C1610162FBF798FF002803D07A
:1059A000BDE81040FBF72AB910BD000000580040C8
:1059B0009C020020801A06000F4810B50D490160B6
:1059C0004FF48271416000218160C1604FF4007228
:1059D0000161C0E90512C1610162416281620A216F
:1059E000C162FCF789FF002803D0BDE81040FBF737
:1059F00005B910BD003001405003002010B588B03B
:105A00001C216846FAF788FC1648154900240160F5
:105A100040F61F51C0E901146321C0E903148461F9
:105A2000FDF7DEFE08B1FBF7E9F86020CDE90004E0
:105A30000294002269460B480494FDF76BFE08B1FE
:105A4000FBF7DCF8042269460648FDF763FE08B15F
:105A5000FBF7D4F80348FDF785FC08B010BD000043
:105A600000180040E805002010B596B000240F94FF
:105A700010941194129413941C2168461494FAF70C
:105A80004BFC202107A8FAF747FC30482E4901605B
:105A9000A721C0E901146421C0E9031444618461B1
:105AA000FDF7F8F808B1FBF7A9F84FF480500F9014
:105AB0000FA92648FDF7D8F908B1FBF79FF823484E
:105AC000FDF78EFE08B1FBF799F8139413A91F4850
:105AD0001494FDF797F808B1FBF790F86020009058
